{"abi":[{"type":"constructor","inputs":[{"name":"_priceFeed","type":"address","internalType":"address"}],"stateMutability":"nonpayable"},{"type":"fallback","stateMutability":"payable"},{"type":"receive","stateMutability":"payable"},{"type":"function","name":"MINIMUM_USD","inputs":[],"outputs":[{"name":"","type":"uint256","internalType":"uint256"}],"stateMutability":"view"},{"type":"function","name":"changePriceFeed","inputs":[{"name":"_priceFeed","type":"address","internalType":"address"}],"outputs":[],"stateMutability":"nonpayable"},{"type":"function","name":"fund","inputs":[],"outputs":[],"stateMutability":"payable"},{"type":"function","name":"getAddressToAmountFunded","inputs":[{"name":"fundingAddress","type":"address","internalType":"address"}],"outputs":[{"name":"","type":"uint256","internalType":"uint256"}],"stateMutability":"view"},{"type":"function","name":"getFunder","inputs":[{"name":"index","type":"uint256","internalType":"uint256"}],"outputs":[{"name":"","type":"address","internalType":"address"}],"stateMutability":"view"},{"type":"function","name":"getOwner","inputs":[],"outputs":[{"name":"","type":"address","internalType":"address"}],"stateMutability":"view"},{"type":"function","name":"getPriceFeed","inputs":[],"outputs":[{"name":"","type":"address","internalType":"address"}],"stateMutability":"view"},{"type":"function","name":"getRandomReturns","inputs":[],"outputs":[{"name":"myPriceFeed","type":"address","internalType":"address"},{"name":"myVersion","type":"uint256","internalType":"uint256"}],"stateMutability":"view"},{"type":"function","name":"getVersion","inputs":[],"outputs":[{"name":"","type":"uint256","internalType":"uint256"}],"stateMutability":"view"},{"type":"function","name":"withdraw","inputs":[],"outputs":[],"stateMutability":"nonpayable"},{"type":"error","name":"FundMe__NotOwner","inputs":[]}],"bytecode":{"object":"0x6080604052348015600e575f5ffd5b5060405161085c38038061085c833981016040819052602b91605d565b60028054336001600160a01b031991821617909155600380549091166001600160a01b03929092169190911790556088565b5f60208284031215606c575f5ffd5b81516001600160a01b03811681146081575f5ffd5b9392505050565b6107c7806100955f395ff3fe608060405260043610610094575f3560e01c8063893d20e811610058578063893d20e8146101685780639e87a5cd14610199578063b60d4288146100a3578063cbd3df38146101b6578063d7b4750c146101d5576100a3565b80630343fb25146100ab5780630d8e6e2c146100f25780631c25a4cc146101065780633ccfd60b146101395780636b69a5921461014d576100a3565b366100a3576100a16101f4565b005b6100a16101f4565b3480156100b6575f5ffd5b506100df6100c536600461062b565b6001600160a01b03165f9081526020819052604090205490565b6040519081526020015b60405180910390f35b3480156100fd575f5ffd5b506100df6102c4565b348015610111575f5ffd5b5061011a6102e0565b604080516001600160a01b0390931683526020830191909152016100e9565b348015610144575f5ffd5b506100a16102fc565b348015610158575f5ffd5b506100df674563918244f4000081565b348015610173575f5ffd5b506002546001600160a01b03165b6040516001600160a01b0390911681526020016100e9565b3480156101a4575f5ffd5b506003546001600160a01b0316610181565b3480156101c1575f5ffd5b506100a16101d036600461062b565b61041e565b3480156101e0575f5ffd5b506101816101ef366004610651565b61046b565b600354674563918244f40000906102159034906001600160a01b0316610499565b10156102615760405162461bcd60e51b8152602060048201526016602482015275088d2c8dc4ee840e6cadcc840cadcdeeaced0408aa8960531b60448201526064015b60405180910390fd5b600180548082019091557fb10e2d527612073b26eecdfd717e6a320cf44b4afac2b0732d9fcbe2b7fa0cf60180546001600160a01b031916339081179091555f90815260208190526040812080543492906102bd90849061067c565b9091555050565b6003545f906102db906001600160a01b03166104cb565b905090565b6003546001600160a01b03165f6102f6826104cb565b90509091565b6002546001600160a01b031633146103275760405163579610db60e01b815260040160405180910390fd5b6001545f90815b81811015610378576001818154811061034957610349610695565b5f9182526020808320909101546001600160a01b0316808352908290526040822091909155925060010161032e565b50604080515f8152602081019182905251610395916001916105b4565b506040515f90339047908381818185875af1925050503d805f81146103d5576040519150601f19603f3d011682016040523d82523d5f602084013e6103da565b606091505b50509050806104195760405162461bcd60e51b815260206004820152600b60248201526a10d85b1b0819985a5b195960aa1b6044820152606401610258565b505050565b6002546001600160a01b031633146104495760405163579610db60e01b815260040160405180910390fd5b600380546001600160a01b0319166001600160a01b0392909216919091179055565b5f6001828154811061047f5761047f610695565b5f918252602090912001546001600160a01b031692915050565b5f5f6104a483610537565b9050670de0b6b3a76400006104b985836106a9565b6104c391906106c0565b949350505050565b5f5f829050806001600160a01b03166354fd4d506040518163ffffffff1660e01b8152600401602060405180830381865afa15801561050c573d5f5f3e3d5ffd5b505050506040513d601f19601f8201168201806040525081019061053091906106df565b9392505050565b5f5f8290505f816001600160a01b031663feaf968c6040518163ffffffff1660e01b815260040160a060405180830381865afa158015610579573d5f5f3e3d5ffd5b505050506040513d601f19601f8201168201806040525081019061059d9190610714565b505050915050806402540be4006104c39190610762565b828054828255905f5260205f20908101928215610607579160200282015b8281111561060757825182546001600160a01b0319166001600160a01b039091161782556020909201916001909101906105d2565b50610613929150610617565b5090565b5b80821115610613575f8155600101610618565b5f6020828403121561063b575f5ffd5b81356001600160a01b0381168114610530575f5ffd5b5f60208284031215610661575f5ffd5b5035919050565b634e487b7160e01b5f52601160045260245ffd5b8082018082111561068f5761068f610668565b92915050565b634e487b7160e01b5f52603260045260245ffd5b808202811582820484141761068f5761068f610668565b5f826106da57634e487b7160e01b5f52601260045260245ffd5b500490565b5f602082840312156106ef575f5ffd5b5051919050565b805169ffffffffffffffffffff8116811461070f575f5ffd5b919050565b5f5f5f5f5f60a08688031215610728575f5ffd5b610731866106f6565b60208701516040880151606089015192975090955093509150610756608087016106f6565b90509295509295909350565b8082025f8212600160ff1b8414161561077d5761077d610668565b818105831482151761068f5761068f61066856fea2646970667358221220c21de222d99471675aba970bb01183f42bcfca5d285e381e4c28fff3afbad1e464736f6c634300081c0033","linkReferences":{}},"methodIdentifiers":{"MINIMUM_USD()":"6b69a592","changePriceFeed(address)":"cbd3df38","fund()":"b60d4288","getAddressToAmountFunded(address)":"0343fb25","getFunder(uint256)":"d7b4750c","getOwner()":"893d20e8","getPriceFeed()":"9e87a5cd","getRandomReturns()":"1c25a4cc","getVersion()":"0d8e6e2c","withdraw()":"3ccfd60b"},"id":27}